S018000041544D5F50726F6A6563745F4D4355322E737265637E
S11300000C942A000C9444020C946D020C949602F5
S11300100C9447000C9447000C9447000C94470040
S11300200C9447000C9447000C9416080C944F0849
S11300300C9447000C9447000C9447000C94470020
S11300400C9447000C9447000C9447000C94470010
S11300500C94470011241FBECFE5D8E0DEBFCDBF0E
S113006011E0A0E6B0E0E4E3F2E102C005900D92F5
S1130070A235B107D9F721E0A2E5B1E001C01D9294
S1130080A136B207E1F70E94E4070C9418090C9416
S113009000004130A1F5813089F028F08230C9F0A8
S11300A0833011F108952AB381E090E002C0880FF3
S11300B0991F6A95E2F7822B8ABB089527B381E0E2
S11300C090E002C0880F991F6A95E2F7822B87BBE4
S11300D0089524B381E090E002C0880F991F6A95C7
S11300E0E2F7822B84BB089521B381E090E002C043
S11300F0880F991F6A95E2F7822B81BB08954111FD
S113010037C0813091F028F08230D9F0833029F162
S113011008952AB381E090E002C0880F991F6A9580
S1130120E2F7809582238ABB089527B381E090E0AB
S113013002C0880F991F6A95E2F78095822387BBD6
S1130140089524B381E090E002C0880F991F6A9556
S1130150E2F78095822384BB089521B381E090E087
S113016002C0880F991F6A95E2F78095822381BBAC
S113017008954130A1F5813089F028F08230C9F02A
S1130180833011F108952BB381E090E002C0880F11
S1130190991F6A95E2F7822B8BBB089528B381E0FF
S11301A090E002C0880F991F6A95E2F7822B88BB02
S11301B0089525B381E090E002C0880F991F6A95E5
S11301C0E2F7822B85BB089522B381E090E002C060
S11301D0880F991F6A95E2F7822B82BB089541111B
S11301E037C0813091F028F08230D9F0833029F182
S11301F008952BB381E090E002C0880F991F6A959F
S1130200E2F7809582238BBB089528B381E090E0C8
S113021002C0880F991F6A95E2F78095822388BBF4
S1130220089525B381E090E002C0880F991F6A9574
S1130230E2F78095822385BB089522B381E090E0A4
S113024002C0880F991F6A95E2F78095822382BBCA
S113025008958130D1F028F0823059F18330E9F1EA
S113026050C049B381E090E09C01062E02C0220FE9
S1130270331F0A94E2F7842F90E08223932302C071
S1130280959587956A95E2F7089546B381E090E0E5
S11302909C01062E02C0220F331F0A94E2F7842F1A
S11302A090E08223932302C0959587956A95E2F79F
S11302B0089543B381E090E09C01062E02C0220F12
S11302C0331F0A94E2F7842F90E08223932302C021
S11302D0959587956A95E2F7089540B381E090E09B
S11302E09C01062E02C0220F331F0A94E2F7842FCA
S11302F090E08223932302C0959587956A95E2F74F
S113030008950895CF93DF93C82FD62F40E00E941D
S1130310490041E06D2F8C2F0E94B900DF91CF91ED
S11303200895813041F028F0823039F0833039F07B
S113033008956ABB089567BB089564BB089561BBC3
S11303400895813041F028F0823039F0833039F05B
S113035008956BBB089568BB089565BB089562BB9F
S11303600895813041F028F0823039F0833039F03B
S113037008C089B3089586B3089583B3089580B3FC
S1130380089508958FB780688FBF0895863031F03F
S1130390873059F1853009F05EC04EC08BB7806458
S11303A08BBF613069F028F0623089F06330B1F0BE
S11303B0089585B78E7F85BF85B78D7F85BF0895E6
S11303C085B7816085BF85B78D7F85BF089585B763
S11303D08E7F85BF85B7826085BF089585B78160AC
S11303E085BF85B7826085BF08958BB780688BBF52
S11303F0613069F028F0623089F06330B1F008951B
S113040085B78B7F85BF85B7877F85BF089585B7FF
S1130410846085BF85B7877F85BF089585B78B7F47
S113042085BF85B7886085BF089585B7846085BF1B
S113043085B7886085BF08958BB780628BBF6230B3
S113044019F0633029F0089584B78F7B84BF089531
S113045084B7806484BF08950097A9F0663029F0BA
S1130460673041F0653079F40AC09093530180936A
S113047052010895909355018093540108959093E7
S113048057018093560108951F920F920FB60F9251
S113049011242F933F934F935F936F937F938F9385
S11304A09F93AF93BF93EF93FF93E0915201F09129
S11304B05301309709F00995FF91EF91BF91AF91E6
S11304C09F918F917F916F915F914F913F912F9168
S11304D00F900FBE0F901F9018951F920F920FB69A
S11304E00F9211242F933F934F935F936F937F93B6
S11304F08F939F93AF93BF93EF93FF93E091540136
S1130500F0915501309709F00995FF91EF91BF9152
S1130510AF919F918F917F916F915F914F913F9197
S11305202F910F900FBE0F901F9018951F920F924E
S11305300FB60F9211242F933F934F935F936F93B2
S11305407F938F939F93AF93BF93EF93FF93E09128
S11305505601F0915701309709F00995FF91EF91F9
S1130560BF91AF919F918F917F916F915F914F91C7
S11305703F912F910F900FBE0F901F90189563E03D
S113058082E00E94D30764E082E00E94D30765E022
S113059082E00E94D307089541E066E082E00E9471
S11305A049000895CF93DF93EC010E946A0703C0CA
S11305B00E941107219688818111FACFC3E008C0F7
S11305C06C2F81E00E946E078AE20E941107CC5FC3
S11305D0C031B0F363E081E00E946E07DF91CF91F8
S11305E00895CF930E944D06C82F813009F49DC011
S11305F00E94AB088C2F0E941107809161008C5FD0
S1130600809361006091610081E00E946E07809197
S11306106100803108F489C00E946A070E94AF0813
S1130620893741F560E080E00E946E0782E790E040
S11306300E944B0721E040E063E082E00E94D7077C
S113064020E040E065E082E00E94D7072FEF83EDD1
S113065090E3215080409040E1F700C000000E94E8
S11306606A0781E0809358011092600083E08093D0
S113067061005BC08E3699F560E080E00E946E07F1
S11306808DE790E00E944B0721E040E064E082E0C7
S11306900E94D70741E066E082E00E94B9002FEF94
S11306A083ED90E3215080409040E1F700C00000CA
S11306B00E946A0783E08093610040E066E082E084
S11306C00E94B90020E040E064E082E00E94D70785
S11306D086E890E00E94D2020E94F10226C0873789
S11306E021F50E946A0787E990E00E944B0720E009
S11306F040E063E082E00E94D70721E040E064E04C
S113070082E00E94D70720E040E065E082E00E949A
S1130710D70741E066E082E00E94B90010925801D8
S11307201092600083E080936100CF91089581E08E
S11307308093600086E890E00E94D20208C021E025
S113074040E065E082E00E94D7070E94F1028091B8
S113075060008111F4CF83E08093610008950E94CA
S11307606A0787EA90E00E944B0760E081E00E94FC
S11307706E0786EB90E00E944B07089520E040E06E
S113078063E082E00E94D70720E040E064E082E07A
S11307900E94D70721E040E065E082E00E94D7078D
S11307A00E946A0710925801089520E040E065E035
S11307B082E00E94D70721E040E063E082E00E94EB
S11307C0D7070E94AF031AC00E944D068130B1F0D2
S11307D0813319F40E94330411C0823319F40E9446
S11307E08E040CC0833319F40E94CD0407C08433F3
S11307F019F40E94600502C00E94BE038091580152
S11308008111E2CF08950E946A0788E70E94AB082D
S113081083E0809361001092580181E0809360002E
S113082020E040E064E082E00E94D70720E040E05E
S113083063E082E00E94D70721E040E065E082E0C7
S11308400E94D70740E066E082E00E94B9000E945F
S1130850970304C00E94CA070E94D50380915801DF
S11308608111F8CF0895CF92DF92EF92FF92CF9348
S1130870DF9321E040E065E082E00E94D70720E0BA
S113088040E063E082E00E94D7070E946A0785EC9B
S113089090E00E944B0760E081E00E946E07D1E087
S11308A0C12CD12C760131C00E944D06C82F813055
S11308B061F18D3359F481E30E94AB08C701B6019D
S11308C00E94D4080E94D503D0E01FC00E941107E3
S11308D0CC0CDD1CEE1CFF1CD701C601880F991F30
S11308E0AA1FBB1F880F991FAA1FBB1FC80ED91EA2
S11308F0EA1EFB1E8C2F90E0C097092E000CAA0B59
S1130900BB0BC80ED91EEA1EFB1ED111CDCFDF9141
S1130910CF91FF90EF90DF90CF900895CF93DF9326
S1130920CDB7DEB72A970FB6F894DEBF0FBECDBFA2
S113093021E040E065E082E00E94D70720E040E04B
S113094063E082E00E94D7070E946A078FEC90E080
S11309500E944B0760E081E00E946E0782E30E94E0
S1130960AB08CE0101960E94B308CE0101960E9405
S11309704B072FEF8DE399E4215080409040E1F73D
S113098000C000000E94D5032A960FB6F894DEBF7B
S11309900FBECDBFDF91CF910895CF92DF92EF923A
S11309A0FF92CF93DF9321E040E065E082E00E9474
S11309B0D70720E040E063E082E00E94D7070E946E
S11309C06A0789ED90E00E944B0760E081E00E9495
S11309D06E07D1E0C12CD12C760169C00E944D066E
S11309E0C82F813009F463C08D3309F041C083E31B
S11309F00E94AB08C701B6010E94D4080E94AF0848
S1130A008E36D9F40E946A0784EE90E00E944B0768
S1130A1060E081E00E946E078FEE90E00E944B0739
S1130A202FEF83ED90E3215080409040E1F700C028
S1130A3000000E94D503D0E03AC00E946A078BEF01
S1130A4090E00E944B0760E081E00E946E0784E022
S1130A5091E00E944B072FEF83ED90E321508040FB
S1130A609040E1F700C000000E94D503D0E01FC011
S1130A700E941107CC0CDD1CEE1CFF1CD701C60123
S1130A80880F991FAA1FBB1F880F991FAA1FBB1F7E
S1130A90C80ED91EEA1EFB1E8C2F90E0C097092EAB
S1130AA0000CAA0BBB0BC80ED91EEA1EFB1ED111EB
S1130AB095CFDF91CF91FF90EF90DF90CF90089585
S1130AC01F93CF93DF9321E040E065E082E00E9432
S1130AD0D70720E040E063E082E00E94D70784E388
S1130AE00E94AB08D1E09AC081E0809360000E942C
S1130AF0970381E191E00E94D20210E08AC021E0D4
S1130B0040E065E082E00E94D70720E040E063E037
S1130B1082E00E94D7070E944D06C82F813009F455
S1130B2078C00E94AB088C2F0E941107809161004D
S1130B308C5F809361006091610081E00E946E0788
S1130B4080916100803108F464C00E946A070E94A9
S1130B50AF088937D1F5113079F581E291E00E942F
S1130B604B0721E040E063E082E00E94D7072FEFCB
S1130B7083ED90E3215080409040E1F700C00000F5
S1130B8021E040E065E082E00E94D70720E040E0F9
S1130B9063E082E00E94D707C3E0C09361000E9433
S1130BA09703C093610081E08093580180936000B3
S1130BB00E94D503D0E02DC08EE291E00E94D202C3
S1130BC083E08093610011E024C08E3611F58BE33D
S1130BD091E00E944B0721E040E064E082E00E9443
S1130BE0D7072FEF83ED90E3215080409040E1F749
S1130BF000C000000E946A0783E08093610020E047
S1130C0040E064E082E00E94D70781E191E00E9425
S1130C10D20280916000882309F471CFD11164CF8E
S1130C20DF91CF911F91089541E060E081E00E943F
S1130C30490041E061E081E00E94490041E062E056
S1130C4081E00E94490041E063E081E00E944900A4
S1130C5041E060E081E00E94B90041E061E081E0B0
S1130C600E94B90041E062E081E00E94B90041E0E5
S1130C7063E081E00E94B90064E081E00E948201A7
S1130C8065E081E00E94820166E081E00E948201C9
S1130C9067E081E00E9482010895AF92BF92CF92F3
S1130CA0DF92EF92FF920F931F93CF93DF93CDB711
S1130CB0DEB768970FB6F894DEBF0FBECDBF84E0F1
S1130CC0898385E08A8386E08B8387E08C831D8219
S1130CD081E08E8382E08F8383E0888780E1E2E68F
S1130CE0F0E0DE01199601900D928A95E1F7B12C9E
S1130CF048C0CB2CD12CE5E0F0E0EC0FFD1FEC0D4F
S1130D00FD1DA08040E06A2D81E00E94B90010E042
S1130D1030C0E12EF12CE1E0F0E0EC0FFD1FEE0D10
S1130D20FF1D0081602F81E00E942901811120C0F4
S1130D308FE59AEE0197F1F700C00000602F81E083
S1130D400E94290104C0602F81E00E9429018823A8
S1130D50D1F3EE0CFF1CEE0CFF1C81E090E08C0F35
S1130D609D1FE80EF91EF701EC0DFD1D80850EC0D8
S1130D701F5F143070F241E06A2D81E00E94B900D7
S1130D80B39493E09B1508F0B4CF81E068960FB656
S1130D90F894DEBF0FBECDBFDF91CF911F910F91AD
S1130DA0FF90EF90DF90CF90BF90AF900895CF93D6
S1130DB0C82F41E060E082E00E94490041E061E028
S1130DC082E00E94490041E062E082E00E94490022
S1130DD06FEF80E00E94910140E060E082E00E94B9
S1130DE0B90040E061E082E00E94B90040E062E0C6
S1130DF082E00E94B9006C2F80E00E94A10141E0D2
S1130E0062E082E00E94B9008FE99FE00197F1F768
S1130E1000C0000040E062E082E00E94B900CF918F
S1130E200895CF93C82F41E060E082E00E9449001A
S1130E3041E061E082E00E94490041E062E082E03A
S1130E400E9449006FEF80E00E94910141E060E060
S1130E5082E00E94B90040E061E082E00E94B900B3
S1130E6040E062E082E00E94B9006C2F80E00E94C2
S1130E70A10141E062E082E00E94B9008FE99FE0B5
S1130E800197F1F700C0000040E062E082E00E94B8
S1130E90B900CF910895CF92DF92EF92FF92CF9352
S1130EA0DF93EC01C12CD12C760107C00E941107FD
S1130EB08FEFC81AD80AE80AF80AFE01EC0DFD1DE6
S1130EC080818111F3CFDF91CF91FF90EF90DF907C
S1130ED0CF90089581E00E94D7060895817090E430
S1130EE0899F600D1124862F80680E94D70608957B
S1130EF08FEF99EF0197F1F700C0000088E30E949B
S1130F00D7068CE00E94D70681E00E94D7068FE9BD
S1130F109FE00197F1F700C0000086E00E94D70629
S1130F2060E080E00E946E070895CF9341E060E0A6
S1130F3082E00E94490041E061E082E00E944900B1
S1130F4041E062E082E00E94490060E080E00E94AB
S1130F50910140E060E082E00E94B90041E061E07C
S1130F6082E00E94B90041E062E082E00E94B900A0
S1130F708FE99FE00197F1F700C0000080E00E9434
S1130F80B101C82F40E062E082E00E94B9008C2FDA
S1130F90CF9108950E949507803921F460E081E0A3
S1130FA00E946E07089541E00E944900089541118E
S1130FB004C0422F0E94B9000895413021F4211148
S1130FC040E00E94B90008950E9478070E94140628
S1130FD060E875E280E090E00E948A080E94BF0207
S1130FE00E94CC0263E087E00E94C60167E083E0D0
S1130FF094E00E942C020E94C2018FE00E94D70656
S113100084E491E00E944B0721E040E065E082E047
S11310100E94D7072FEF83ED90E32150804090404A
S1131020E1F700C000000E946A07FFCF1F920F92F1
S11310300FB60F9211242F933F934F935F936F93A7
S11310407F938F939F93AF93BF93EF93FF9380917D
S11310505B0190915C01019690935C0180935B012C
S1131060843F914059F410925C0110925B01E0912D
S11310705F01F0916001309709F00995FF91EF91BC
S1131080BF91AF919F918F917F916F915F914F919C
S11310903F912F910F900FBE0F901F9018951F92A4
S11310A00F920FB60F9211242F933F934F935F9398
S11310B06F937F938F939F93AF93BF93EF93FF931C
S11310C08091590190915A01019690935A0180930D
S11310D05901893C914069F483EC82BF10925A0112
S11310E010925901E0915D01F0915E01309709F091
S11310F00995FF91EF91BF91AF919F918F917F914E
S11311006F915F914F913F912F910F900FBE0F9070
S11311101F90189522E02BB928E12AB926E820BDB2
S1131120DC01CB01880F991FAA1FBB1F880F991FD1
S1131130AA1FBB1F9C01AD01220F331F441F551F63
S113114060E074E284EF90E00E94F60821503109D7
S113115030BD29B908955D9BFECF8CB908955F9B7E
S1131160FECF8CB10895EF92FF920F931F93CF930C
S11311708C010E94AF08F8018083C0E008C0CF5FF3
S11311807801EC0EF11C0E94AF08F7018083F8018E
S1131190EC0FF11D8081833291F71082CF911F9162
S11311A00F91FF90EF900895CF93DF9300D000D07C
S11311B0CDB7DEB769837A838B839C8380E090E02C
S11311C00BC05D9BFECFE1E0F0E0EC0FFD1FE80FEC
S11311D0F91F20812CB901968430910594F30F9066
S11311E00F900F900F90DF91CF910895A1E21A2EE6
S11311F0AA1BBB1BFD010DC0AA1FBB1FEE1FFF1FB7
S1131200A217B307E407F50720F0A21BB30BE40B06
S1131210F50B661F771F881F991F1A9469F760954D
S11312207095809590959B01AC01BD01CF01089507
S1071230F894FFCF5C
S113123401033738392F3435362A3132332D6330AC
S11312443D2B436F72726563742021210057726FC2
S11312546E6720212100456E74657220506173739A
S1131264776F72643A20005761726E696E67204525
S113127452524F52202100312D4450202020322D2F
S1131284436865636B00332D574420342D436867EA
S113129420505357004465706F736974203A0042B8
S11312A4616C616E6365203A007769746864726185
S11312B477203A004E6F7420456E6F75676800425C
S11312C4616C616E6365202121210057697468642F
S11312D472617700436F6D706C6574652021212100
S11312E400456E746572204E6577205053573A203A
S11312F40050535720736176656420212100436FA5
S11313046E6669726D205053573A004572726F725B
S1131314202121002057656C636F6D6520212120F5
S10513240000C3
S9030000FC
