:100000000C942A000C9449000C9472000C949B00F0
:100010000C9447000C9447000C9447000C94470044
:100020000C9447000C9447000C943F020C94780207
:100030000C9447000C9447000C9447000C94470024
:100040000C9447000C9447000C9447000C94470014
:100050000C94470011241FBECFE5D8E0DEBFCDBF12
:1000600010E0A0E6B0E0ECE8FCE002C005900D92E4
:10007000A837B107D9F720E0A8E7B0E001C01D928A
:10008000A738B207E1F70E9428020C9444060C94AA
:1000900000001F920F920FB60F9211242F933F93DF
:1000A0004F935F936F937F938F939F93AF93BF9380
:1000B000EF93FF93E0917800F0917900309709F089
:1000C0000995FF91EF91BF91AF919F918F917F9192
:1000D0006F915F914F913F912F910F900FBE0F90B5
:1000E0001F9018951F920F920FB60F9211242F9305
:1000F0003F934F935F936F937F938F939F93AF93B0
:10010000BF93EF93FF93E0917A00F0917B003097DB
:1001100009F00995FF91EF91BF91AF919F918F9158
:100120007F916F915F914F913F912F910F900FBEF3
:100130000F901F9018951F920F920FB60F921124D7
:100140002F933F934F935F936F937F938F939F93DF
:10015000AF93BF93EF93FF93E0917C00F0917D000C
:10016000309709F00995FF91EF91BF91AF919F9161
:100170008F917F916F915F914F913F912F910F9050
:100180000FBE0F901F9018950F931F93CF93DF937F
:10019000CDB7DEB727970FB6F894DEBF0FBECDBF41
:1001A00001E041C01A821982FE01339683E0DF012B
:1001B0001D928A95E9F710E00CC00E94E5028E833B
:1001C0001F82BE016A5F7F4FCE0101960E943F03EE
:1001D0001F5F143090F3BE016F5F7F4F85E690E0A4
:1001E0000E944A03892B41F489E70E94D40281E0EE
:1001F0008093600000E017C080916000833059F464
:1002000087E70E94D40281E0809360000E94E502AB
:100210008837E1F708C08EE60E94D4028091600022
:100220008F5F809360000111BDCF27960FB6F894C1
:10023000DEBF0FBECDBFDF91CF911F910F9108950B
:10024000CF93DF93EA019F938F937F936F9384E71C
:1002500090E09F938F93DF934F930E945A030990EE
:100260000020E9F7219783E290E0998388838DB796
:100270009EB708960FB6F8949EBF0FBE8DBFDF9154
:10028000CF910895CF92DF92EF92FF920F931F9339
:10029000CF93DF93CDB7DEB72C970FB6F894DEBFC0
:1002A0000FBECDBF0E94E5028133C9F40E94E9026E
:1002B0000091610010916200209163003091640010
:1002C000DC01CB01800F911FA21FB31F809361003F
:1002D00090936200A0936300B0936400AAC082333D
:1002E00091F460916100709162008091630090913F
:1002F0006400AE014F5F5F4F0E942001CE01019666
:100300000E94D80296C0833369F50E94E9020091E9
:100310006100109162002091630030916400061723
:1003200017072807390720F48EE60E94D40281C0FF
:10033000009161001091620020916300309164008F
:1003400068017901C61AD70AE80AF90AC092610061
:10035000D0926200E0926300F092640089E70E940C
:10036000D40267C0843309F05EC00E94C4008AE0F2
:10037000EAE6F0E0DE01119601900D928A95E1F730
:1003800000E04EC00E94E5028B871C86802F90E023
:100390009C01220F331F220F331F820F931FBE01B8
:1003A000655F7F4FEE24E394F12CEC0EFD1E8E0D65
:1003B0009F1D0E943F031F5F01C010E0143010F327
:1003C000011111C0BE016F5F7F4F85E690E00E9472
:1003D0004A03892B21F48EE60E94D40220C089E7CB
:1003E0000E94D4021CC0BE016F5F7F4FCE010696F3
:1003F0000E944A03892B21F08EE60E94D4020FC08E
:10040000BE016F5F7F4F85E690E00E94530389E74E
:100410000E94D40281E0809360000E94C4000F5FBC
:10042000023058F206C0883721F40E94C4000E94AE
:1004300042012C960FB6F894DEBF0FBECDBFDF9100
:10044000CF911F910F91FF90EF90DF90CF90089583
:1004500060E875E280E090E00E94B3020E94E5024D
:10046000883741F481E080937E000E94C40002C07E
:100470000E94420180917E008111FACFEFCF1F923E
:100480000F920FB60F9211242F933F934F935F93C8
:100490006F937F938F939F93AF93BF93EF93FF934C
:1004A00080918100909182000196909382008093C8
:1004B0008100843F914059F4109282001092810093
:1004C000E0918500F0918600309709F00995FF9141
:1004D000EF91BF91AF919F918F917F916F915F91BC
:1004E0004F913F912F910F900FBE0F901F90189535
:1004F0001F920F920FB60F9211242F933F934F9399
:100500005F936F937F938F939F93AF93BF93EF937B
:10051000FF9380917F0090918000019690938000DE
:1005200080937F00893C914069F483EC82BF1092F4
:10053000800010927F00E0918300F091840030975A
:1005400009F00995FF91EF91BF91AF919F918F9124
:100550007F916F915F914F913F912F910F900FBEBF
:100560000F901F90189522E02BB928E12AB926E8B0
:1005700020BDDC01CB01880F991FAA1FBB1F880F6C
:10058000991FAA1FBB1F9C01AD01220F331F441FDF
:10059000551F60E074E284EF90E00E941D0321503B
:1005A000310930BD29B908955D9BFECF8CB90895FE
:1005B000CF93DF93EC0103C00E94D402219688817F
:1005C0008111FACFDF91CF9108955F9BFECF8CB15F
:1005D0000895CF93DF9300D000D0CDB7DEB780E091
:1005E00090E00BC05F9BFECF2CB1E1E0F0E0EC0FA0
:1005F000FD1FE80FF91F208301968430910594F3C5
:100600006C8170E0772766278B8190E09927882797
:10061000682B792B8A8190E0982F8827682B792B7B
:100620008981682B072E000C880B990B0F900F9077
:100630000F900F90DF91CF910895A1E21A2EAA1B7F
:10064000BB1BFD010DC0AA1FBB1FEE1FFF1FA21782
:10065000B307E407F50720F0A21BB30BE40BF50B7F
:10066000661F771F881F991F1A9469F76095709508
:10067000809590959B01AC01BD01CF010895FB01D0
:10068000DC010D900020E9F7119701900D920020F8
:10069000E1F70895FB01DC018D91019080190110B3
:1006A000D9F3990B0895FB01DC0101900D92002014
:1006B000E1F70895AEE0B0E0E0E6F3E00C941B064D
:1006C0000D891E8986E08C831A8309838FEF9FE74B
:1006D0009E838D83AE01475E5F4F6F89788DCE011B
:1006E00001960E947C03EF81F885E00FF11F1082D4
:1006F0002E96E4E00C943706ABE0B0E0E2E8F3E0DD
:100700000C940D066C017B018A01FC011782168294
:10071000838181FFCCC1CE0101963C01F60193811A
:10072000F70193FD859193FF81917F01882309F45F
:10073000BAC1853239F493FD859193FF81917F0190
:10074000853229F4B60190E00E947305E7CF912C21
:10075000212C312CFFE1F315D8F08B3279F038F4ED
:10076000803279F08332A1F4232D20611DC08D32B7
:1007700061F0803369F4232D216016C0832D8260DF
:10078000382EE32DE4603E2E2AC0F32DF8601DC004
:1007900037FC2DC020ED280F2A3040F08E32B9F4FE
:1007A00036FC81C1232D2064322E19C036FE06C0CE
:1007B0008AE0989E200D1124922E11C0EAE02E9E10
:1007C000200D1124222EF32DF0623F2E08C08C360E
:1007D00021F4832D8068382E02C0883641F4F70159
:1007E00093FD859193FF81917F018111B3CF982F64
:1007F0009F7D9554933028F40C5F1F4F9FE399839E
:100800000DC0833631F0833771F0833509F059C05C
:1008100021C0F801808189830E5F1F4F8824839453
:10082000912C530113C02801F2E04F0E511CF80126
:10083000A080B18036FE03C0692D70E002C06FEF6A
:100840007FEFC5010E9468054C018201F32DFF77FF
:100850003F2E16C0280122E0420E511CF801A08054
:10086000B18036FE03C0692D70E002C06FEF7FEFEC
:10087000C5010E945D054C01F32DF0683F2E8201F9
:1008800033FC1BC0822D90E088169906B0F4B601A7
:1008900080E290E00E9473052A94F4CFF50137FCC2
:1008A000859137FE81915F01B60190E00E9473054A
:1008B00021102A9421E0821A91088114910471F781
:1008C000E8C0843611F0893641F5F80137FE07C0DB
:1008D00060817181828193810C5F1F4F08C06081AC
:1008E0007181072E000C880B990B0E5F1F4FF32DA3
:1008F000FF763F2E97FF09C0909580957095619582
:100900007F4F8F4F9F4FF0683F2E2AE030E0A301CA
:100910000E94AF05882E861845C0853731F4232DF7
:100920002F7EB22E2AE030E025C0932D997FB92E7C
:100930008F36C1F018F4883579F0B5C0803719F0DA
:10094000883721F0B0C0E92FE061BE2EB4FE0DC0A3
:10095000FB2DF460BF2E09C034FE0AC0292F26608B
:10096000B22E06C028E030E005C020E130E002C031
:1009700020E132E0F801B7FE07C060817181828119
:1009800093810C5F1F4F06C06081718180E090E011
:100990000E5F1F4FA3010E94AF05882E8618FB2D06
:1009A000FF773F2E36FE0DC0232D2E7FA22E8914F9
:1009B00058F434FE0BC032FC09C0832D8E7EA82E65
:1009C00005C0B82CA32C03C0B82C01C0B92CA4FEC0
:1009D0000FC0FE01E80DF11D8081803321F49A2DB6
:1009E000997EA92E09C0A2FE06C0B394B39404C098
:1009F0008A2D867809F0B394A3FC11C0A0FE06C02E
:100A0000B21488F4280C922C9B180EC0B21460F417
:100A1000B60180E290E00E947305B394F7CFB21460
:100A200018F42B1802C0982C212CA4FE10C0B6017B
:100A300080E390E00E947305A2FE17C0A1FC03C0F2
:100A400088E790E002C088E590E0B6010CC08A2DEE
:100A5000867859F0A1FE02C08BE201C080E2A7FCBB
:100A60008DE2B60190E00E947305891438F4B60156
:100A700080E390E00E9473059A94F7CF8A94F30183
:100A8000E80DF11D8081B60190E00E947305811090
:100A9000F5CF222009F442CEB60180E290E00E9418
:100AA00073052A94F6CFF6018681978102C08FEFF5
:100AB0009FEF2B96E2E10C942906FC010590615012
:100AC00070400110D8F7809590958E0F9F1F089564
:100AD000FC016150704001900110D8F7809590950D
:100AE0008E0F9F1F08950F931F93CF93DF93FB01EA
:100AF000238121FD03C08FEF9FEF2CC022FF16C082
:100B000046815781248135814217530744F4A081DF
:100B1000B1819D012F5F3F4F318320838C932681CC
:100B200037812F5F3F4F3783268314C08B01EC0141
:100B3000FB010084F185E02D0995892BE1F6D801B0
:100B400016968D919C911797019617969C938E936C
:100B50001697CE01DF91CF911F910F910895FA0161
:100B6000AA27283051F1203181F1E8946F936E7FEC
:100B70006E5F7F4F8F4F9F4FAF4FB1E03ED0B4E0DD
:100B80003CD0670F781F891F9A1FA11D680F791F1E
:100B90008A1F911DA11D6A0F711D811D911DA11D2F
:100BA00020D009F468943F912AE0269F112430193F
:100BB000305D3193DEF6CF010895462F4770405DDA
:100BC0004193B3E00FD0C9F7F6CF462F4F70405D89
:100BD0004A3318F0495D31FD4052419302D0A9F7E4
:100BE000EACFB4E0A6959795879577956795BA95DE
:100BF000C9F700976105710508959B01AC010A2EA4
:100C000006945795479537952795BA95C9F7620F7A
:100C1000731F841F951FA01D08952F923F924F921E
:100C20005F926F927F928F929F92AF92BF92CF927C
:100C3000DF92EF92FF920F931F93CF93DF93CDB785
:100C4000DEB7CA1BDB0B0FB6F894DEBF0FBECDBFFD
:100C500009942A88398848885F846E847D848C84CE
:100C60009B84AA84B984C884DF80EE80FD800C81D7
:100C70001B81AA81B981CE0FD11D0FB6F894DEBFBA
:0C0C80000FBECDBFED010895F894FFCF2A
:100C8C000164000000313233340000000000000029
:080C9C000000000025640000C7
:00000001FF
